:100000000C9476020C9493020C9493020C94C32AE1
:100010000C948D2A0C9493020C9493020C949302EA
:100020000C9493020C9487260C9493020C949B26B8
:100030000C9493020C9493020C9493020C949302EC
:100040000C943D260C9493020C94142A0C94632A6D
:100050000C9493020C9493020C9493020C949302CC
:100060000C9493020C949302084AD73B3BCE016E4A
:1000700084BCBFFDC12F3D6C74319ABD56833DDAFF
:100080003D00C77F11BED9E4BB4C3E916BAAAABE0E
:10009000000000803F05A84CCDB2D44EB93836A937
:1000A000020C50B9918688083CA6AAAA2ABE000074
:1000B00000803F000D0A4772626C20302E386320AA
:1000C000636F737479636E6320312E30205B272455
:1000D0002720666F722068656C705D0D0A0024240D
:1000E000202876696577204772626C207365747486
:1000F000696E6773290D0A242320287669657720A5
:100100002320706172616D6574657273290D0A2414
:100110004720287669657720706172736572207355
:1001200074617465290D0A244E202876696577204C
:100130007374617274757020626C6F636B73290DD8
:100140000A24783D76616C75652028736176652098
:100150004772626C2073657474696E67290D0A2496
:100160004E783D6C696E65202873617665207374E6
:10017000617274757020626C6F636B290D0A244381
:100180002028636865636B2067636F6465206D6F0B
:100190006465290D0A245820286B696C6C20616CF9
:1001A00061726D206C6F636B290D0A2448202872E0
:1001B000756E20686F6D696E67206379636C652961
:1001C0000D0A7E20286379636C65207374617274F4
:1001D000290D0A2120286665656420686F6C6429F2
:1001E0000D0A3F202863757272656E742073746106
:1001F000747573290D0A6374726C2D7820287265EA
:10020000736574204772626C290D0A005D0D0A0047
:100210002C005B4739323A005D0D0A002C00333068
:100220003A0032383A0035393A0035383A00353735
:100230003A0035363A0035353A0035343A005B47F6
:10024000005D0D0A00204600205400204D3800209B
:100250004D3900204D3500204D3400204D33002015
:100260004D3200204D3100204D3000204739340000
:1002700020473933002047393100204739300020EA
:1002800047323100204732300020473139002047C3
:1002900031380020473137002047005B47383000B5
:1002A0005B4733005B4732005B4731005B47300000
:1002B0000D0A003D00244E006F6B0D0A003E0D0A32
:1002C000002C0057506F733A002C002C4D506F7368
:1002D0003A003C436865636B003C416C61726D00A1
:1002E0003C486F6D65003C486F6C64003C52756E15
:1002F000003C5175657565003C49646C65005D0D99
:100300000A0044697361626C656400456E61626CE9
:1003100065640043617574696F6E3A20556E6C6F49
:10032000636B656400272448277C272458272074A2
:100330006F20756E6C6F636B00526573657420740B
:100340006F20636F6E74696E7565005B002E204DC3
:10035000506F733F0D0A0041626F727420647572B2
:10036000696E67206379636C650048617264206C14
:10037000696D697400414C41524D3A200020286457
:10038000656661756C7420616363656C6572617428
:10039000696F6E2C206D6D2F6D696E290D0A00201E
:1003A0002864656661756C74207365656B2C206DBF
:1003B0006D2F6D696E290D0A24383D002028646573
:1003C0006661756C7420666565642C206D6D2F6D9B
:1003D000696E290D0A24353D002028792C2073747C
:1003E00065702F6D6D290D0A24343D002028782C6E
:1003F00020737465702F6D6D290D0A24313D002422
:10040000303D000D0A00416C61726D206C6F636BB2
:100410000042757379206F7220717565756564008F
:10042000454550524F4D2072656164206661696C8C
:100430002E205573696E672064656661756C7473F0
:100440000056616C7565203C203320757365630030
:1004500056616C7565203C20302E300053657474F5
:10046000696E672064697361626C656400496E76C9
:10047000616C69642073746174656D656E74004DA0
:100480006F64616C2067726F75702076696F6C6144
:1004900074696F6E00496E76616C69642072616484
:1004A00069757300556E737570706F727465642032
:1004B00073746174656D656E7400457870656374FE
:1004C000656420636F6D6D616E64206C6574746526
:1004D0007200426164206E756D62657220666F7293
:1004E0006D6174006572726F723A200011241FBE34
:1004F000CFEFD8E0DEBFCDBF11E0A0E0B1E0E4E295
:10050000F1E602C005900D92A430B107D9F726E0BC
:10051000A4E0B1E001C01D92A03FB207E1F70E9444
:10052000F42A0C9490300C9400008F929F92AF921A
:10053000BF92CF92DF92EF92FF920F931F93CF93D0
:10054000DF937C016B01DC01EC91F0E0E254F94FA8
:100550008081EF018D3229F52296818101E0912C75
:10056000F0E010E020E030E0A9015E01E0EDE80FEE
:10057000EA3018F5FF5FF930E0F491101150A5E072
:10058000B0E00E9476309B01AC01220F331F441F64
:10059000551F2E0F311D411D511D2196D5018C91E6
:1005A000E4CF8B3219F0219600E0D9CF22968181D9
:1005B000FBCF9110F2CF1F5FF0CFEE3F29F49110E7
:1005C00003C099249394E9CF90E080E0FF23C9F120
:1005D000CA01B9010E94EE2C4B015C0120E030E021
:1005E000A9010E943C2C8823D1F01F3F64F42AE02B
:1005F00037ED43E25CE3C501B4010E94452F4B0196
:100600005C011E5FF2CF1F3F49F52DEC3CEC4CEC3A
:100610005DE3C501B4010E94452F4B015C0100233D
:1006200059F1B7FAB094B7F8B094F601808291828C
:10063000A282B382CE5BD640C150F701C08381E075
:1006400090E0DF91CF911F910F91FF90EF90DF909D
:10065000CF90BF90AF909F908F9008951123F9F2A3
:1006600020E030E040E251E4C501B4010E94452F92
:100670004B015C011150F2CFD6018D929D92AD924B
:10068000BC921397D7CFCF93DF93DC01EA01E881C7
:10069000F0E0E254F94F9081992339F09C93915402
:1006A0009A3130F082E08093890690E080E00BC0C0
:1006B000CA0128812F5F28830E949502009731F498
:1006C00021E020938906DF91CF91089581E090E0A9
:1006D000FACF9B01AC01203283E038074105510578
:1006E00020F420E233E040E050E060E070E788E38F
:1006F00099E30E944E30B90191E02115310581E066
:1007000048075105B0F02115310588E0480751052B
:1007100018F563E056954795379527956A95D1F773
:10072000B901E3E0220F331F441F551FEA95D1F7AB
:1007300092E080918100887F892B80938100709363
:1007400089006093880020932806309329064093FF
:100750002A0650932B06089586E0569547953795BF
:1007600027958A95D1F7B90196E0220F331F441FD0
:10077000551F9A95D1F793E0DCCF80912C0690918C
:100780002D06A0912E06B0912F064091280650917B
:10079000290660912A0670912B06840F951FA61FCB
:1007A000B71F813022EE920724E0A207B10550F472
:1007B00080932C0690932D06A0932E06B0932F06BF
:1007C00080E00895925EA440B10980932C06909336
:1007D0002D06A0932E06B0932F0681E008958091F8
:1007E0007C0690917D06A0917E06B0917F060197D0
:1007F000A109B10980937C0690937D06A0937E06A3
:10080000B0937F068091000190910101019689309B
:1008100091050CF045C090930101809300018091F7
:10082000000190910101019711F480E28BB9809150
:10083000000190910101029711F480E38BB980913E
:10084000000190910101039711F480E18BB980912F
:10085000000190910101049711F488E18BB9809116
:10086000000190910101059711F488E08BB9809106
:10087000000190910101069711F48CE08BB98091F1
:10088000000190910101079711F484E08BB98091E8
:10089000000190910101089711F484E28BB9089549
:1008A00081E090E0B8CF80917C0690917D06A09188
:1008B0007E06B0917F060196A11DB11D80937C0636
:1008C00090937D06A0937E06B0937F0680910001F1
:1008D000909101010197181619060CF045C09093EC
:1008E0000101809300018091000190910101019725
:1008F00011F480E28BB9809100019091010102977F
:1009000011F480E38BB9809100019091010103976C
:1009100011F480E18BB9809100019091010104975D
:1009200011F488E18BB98091000190910101059744
:1009300011F488E08BB98091000190910101069734
:1009400011F48CE08BB9809100019091010107971F
:1009500011F484E08BB98091000190910101089716
:1009600011F484E28BB9089588E090E0B8CF8091CB
:10097000660682FF17C02D9A80917A06833089F42B
:100980008091590680931206809150068250990BEF
:10099000880F81958093110680916F00826080930B
:1009A0006F0008952D98E8CF80917A06823029F45F
:1009B00083E080937A060C94B704089528980895EC
:1009C000E091230191E09E0F903409F490E0209192
:1009D0006401291305C020917B0624FFF8CF0895F8
:1009E000F0E0EC5DFE4F8083909323018091C10085
:1009F00080628093C10008958F929F92AF92BF92C0
:100A0000CF92DF92EF92FF920F931F93CF93DF93DA
:100A1000CDB7DEB72A970FB6F894DEBF0FBECDBFB5
:100A20006B017C0120E030E0A9010E943C2C87FF93
:100A300007C08DE20E94E004F7FAF094F7F8F09412
:100A400010917706012F023060F020E030E048EC92
:100A500052E4C701B6010E94452F6B017C01025090
:100A6000F2CF10FF0AC020E030E040E251E4C701BD
:100A7000B6010E94452F6B017C0120E030E040E090
:100A80005FE3C701B6010E94472B0E94B82C9E016C
:100A90002F5F3F4F7901F901E10FF11D2EE2208315
:100AA00000E02AE0822E912CA12CB12C6115710559
:100AB0008105910549F4F701E00FF11D80E301176D
:100AC000A0F40F5F8193FBCF011301C00F5F67019B
:100AD000C00ED11CA50194010E944E30605DF6014C
:100AE0006083B901CA010F5FE1CF011308C0E1E0E3
:100AF000E00FEE0DFF2DF11D0E5F80E380830E0DE4
:100B00001F2D111D0E151F0531F0F80182918F0167
:100B10000E94E004F7CF2A960FB6F894DEBF0FBE0E
:100B2000CDBFDF91CF911F910F91FF90EF90DF909C
:100B3000CF90BF90AF909F908F9008958F929F928B
:100B4000AF92BF92CF92DF92EF92FF920F931F93DB
:100B5000CF93DF93CDB7DEB72A970FB6F894DEBFF9
:100B60000FBECDBF6115710581059105A9F480E324
:100B70002A960FB6F894DEBF0FBECDBFDF91CF919E
:100B80001F910F91FF90EF90DF90CF90BF90AF90AB
:100B90009F908F900C94E00400E09E012F5F3F4FE8
:100BA00079012AE0822E912CA12CB12C6701C00E74
:100BB000D11CA50194010E944E30605DF601608356
:100BC000B901CA010F5F611571058105910571F7C2
:100BD0000E0D1F2D111DE016F10631F0F801829166
:100BE0008F010E94E004F7CF2A960FB6F894DEBF7B
:100BF0000FBECDBFDF91CF911F910F91FF90EF906E
:100C0000DF90CF90BF90AF909F908F900895CF933B
:100C1000DF93EC01FE0184912196882319F00E9454
:100C2000E004F8CFDF91CF910895CF93C82F84EEE1
:100C300094E00E940706C150CC30B0F4EC2FF0E0F5
:100C4000EC5DF94F0C947030300639063C063F06D7
:100C50004206450648064B064E0651065406570600
:100C600082ED94E00E94070683E094E0CF910C941B
:100C700007068AEB94E0F6CF84EA94E0F3CF85E9A7
:100C800094E0F0CF8FE794E0EDCF8DE694E0EACFEB
:100C90008CE594E0E7CF80E594E0E4CF81E494E054
:100CA000E1CF80E294E0DECF81E194E0DBCF86E02B
:100CB00094E0D8CFCF93DF938FEF93E00E940706A5
:100CC000C3E4D6E0688179818A819B810E94FC041B
:100CD0008CEE93E00E9407066C817D818E819F815E
:100CE0000E94FC0489ED93E00E9407066E857F85D3
:100CF000888999890E94FC048CEB93E00E94070686
:100D00006A897B898C899D890E94FC048FE993E024
:100D10000E94070620E030E041E655E46B8D7C8DB3
:100D20008D8D9E8D0E94462C0E94FC048DE793E0E1
:100D3000DF91CF910C9407068F929F92AF92BF9252
:100D4000CF92DF92EF92FF920F931F93CF93DF9397
:100D5000E9E7F6E0C384D484E584F6848780908450
:100D6000A184B2846381748185819681E7E0F1E09A
:100D7000608371838283938384829582A682B78203
:100D8000C086D186E286F386C9E8D6E00E94F02CC0
:100D900003E416E0F80120813181428153810E94F1
:100DA000462C6C877D878E879F87C501B4010E9482
:100DB000F02CF80124813581468157810E94462C10
:100DC000688B798B8A8B9B8BC701B6010E94F02CB4
:100DD000F80120853185428553850E94462C6C8B15
:100DE0007D8B8E8B9F8BDF91CF911F910F91FF9009
:100DF000EF90DF90CF90BF90AF909F908F9008952D
:100E00002198299A8091660683FF0BC080916B0020
:100E1000826080936B00809168008160809368009D
:100E2000089580916B008D7F80936B0080916800A6
:100E30008E7FF4CF4F925F926F927F92AF92BF926C
:100E4000CF92DF92EF92FF920F931F93CF93DF9396
:100E50008C01EB01FC01458856886788708CAD8851
:100E6000BE88CF88D88C9501A601C301B2010E942B
:100E70003C2C87FF40C0A3019201C301B2010E9434
:100E8000452F2B013C0160915E0670915F068091B9
:100E900060069091610690589B01AC010E94472B1F
:100EA000F801258D368D478D50A10E94452F9B015D
:100EB000AC01C301B2010E94462B0E94E42F7B01CA
:100EC0008C019B01AC01B501C6010E943C2C87FF3F
:100ED00002C0750186019701A801B501C6010E94F3
:100EE0003C2C882341F0C701D8018D8B9E8BAF8BA2
:100EF000B88F81E089A3DF91CF911F910F91FF906F
:100F0000EF90DF90CF90BF90AF907F906F905F9009
:100F10004F900895EF92FF920F931F93CF93DF931B
:100F2000C0910D0610E0D0E090E080E00BE320914E
:100F30000E062C17D1F0C09F90011124A901495130
:100F40005E4F7A01009741F0FC0122A1211104C0FB
:100F5000612F7D2F0E941A07CF5FC23109F4C0E0D4
:100F6000812F9D2F1E2DDF2DE2CF009771F0FC0108
:100F700022A121110AC0612F7D2FDF91CF911F91F6
:100F80000F91FF90EF900C941A07DF91CF911F9172
:100F90000F91FF90EF9008952F923F924F925F92A2
:100FA0006F927F928F929F92AF92BF92CF92DF9279
:100FB000EF92FF920F931F93CF93DF9310910E0642
:100FC00040905E0650905F066090600670906106EB
:100FD00077FA709477F87094B12CA12CD0E0C0E02F
:100FE0008BE3C82E80910D06811709F46EC0111194
:100FF00001C012E111501C9DC00111249C01295116
:101000003E4F1901209709F45DC0A114B10409F401
:1010100059C0D98CEA8CFB8C0C8D2D2D3E2D4F2D7B
:10102000502F6D897E898F89988D0E943C2C882352
:1010300009F448C08AA181113BC0F50185889688D2
:10104000A788B08CA50194016D2D7E2D8F2D902F3A
:101050000E945E2E181664F5A5019401C501B40125
:101060000E94452F4B015C01A3019201C301B20113
:101070000E94472B2D8D3E8D4F8D58A10E94452FEC
:101080009B01AC01C501B4010E94462B0E94E42FD4
:101090004B015C019B01AC016D2D7E2D8F2D902F9E
:1010A0000E943C2C87FD04C0D82CE92CFA2C0B2D77
:1010B0008D2D9E2DAF2DB02F8D8B9E8BAF8BB88F2E
:1010C000F1E0F9A35E01E1018DCFDF91CF911F9196
:1010D0000F91FF90EF90DF90CF90BF90AF909F90D7
:1010E0008F907F906F905F904F903F902F900895DA
:1010F0006115710581059105C1F16A3071058105A0
:10110000910548F425E02A95F1F700006150710936
:1011100081099109EDCF643671058105910548F487
:10112000E5E3EA95F1F700006A5071098109910938
:10113000DFCF683EF3E07F078105910558F4EFE8C3
:10114000F1E03197F1F700C00000645671098109A0
:101150009109CECFEFE9FFE03197F1F700C0000031
:10116000685E734081099109C3CF0895019738F0F3
:10117000EFE9FFE03197F1F700C00000F7CF0895E5
:1011800080916F008D7F80936F00809176068F3FF6
:1011900021F490917B0695FF0CC090E00E94B60868
:1011A0001BB818B88091660682FF02C02D9808957A
:1011B0002D9A089580917B0684FD15C080917B0651
:1011C000806180937B060E94DE040E94DE04809191
:1011D0007A068350833038F480917B068062809356
:1011E0007B060C94C008089590E080E00C94302BAE
:1011F0009F92AF92BF92CF92DF92EF92FF920F93A6
:101200001F93CF93DF935B018A017C01E40EF51EEF
:10121000EC01912C6B01C81AD90AC6018C0F9D1FD5
:101220000E94302B292D30E02115310519F5220FB0
:10123000232F221F330B2170982E920E8993CE15E7
:10124000DF0559F7C501800F911F0E94302B21E067
:1012500030E0981611F030E020E0C901DF91CF9125
:101260001F910F91FF90EF90DF90CF90BF90AF90C4
:101270009F90089521E0E0CF9F92AF92BF92CF92CE
:10128000DF92EF92FF920F931F93CF93DF935C0156
:10129000EB017A016B01C40ED51E8C01912C692DD6
:1012A00070E06115710511F5660F672F661F770BEA
:1012B00061708991982E960E682FC8010E94382B74
:1012C0000F5F1F4FCC16DD0651F7692DC5018E0D3E
:1012D0009F1DDF91CF911F910F91FF90EF90DF90B5
:1012E000CF90BF90AF909F900C94382B61E0E1CFEE
:1012F000CF93DF9393E3899FE0011124DD5F42E305
:1013000050E0BE018EEB96E00E94F808892B69F44C
:101310001092BE0642E350E06EEB76E0CE010E94F2
:101320003C0980E0DF91CF91089581E0FBCF65E03B
:1013300090E080E00E94382B46E350E063E476E0E2
:1013400081E090E00C943C09882309F462C080E0BD
:1013500090E0A0E0B3E48093430690934406A0930A
:101360004506B09346068093470690934806A0939F
:101370004906B0934A0680E090E0A8E4B3E4809385
:101380004B0690934C06A0934D06B0934E068AE010
:101390008093500680E090E0A8ECB3E4809351067F
:1013A00090935206A0935306B093540680E090E0C9
:1013B000A8E4B4E48093550690935606A09357068C
:1013C000B093580680E098ECAFEAB8E480935E06EC
:1013D00090935F06A0936006B09361068DEC9CEC41
:1013E000ACECBDE380935A0690935B06A0935C0639
:1013F000B0935D0681E8809359068DEC9CECACE4DB
:10140000BDE38093620690936306A0936406B09355
:10141000650682E0809366061092670680E090E0A1
:10142000A8ECB1E48093680690936906A0936A06DD
:10143000B0936B0680E090E0AAE7B3E480936C067B
:1014400090936D06A0936E06B0936F0684E690E0CD
:10145000909371068093700680E090E0A0E8BFE36F
:101460008093720690937306A0937406B0937506EA
:1014700089E18093760693E09093770680937806CF
:101480000C9497092DE0829FC00111244CE050E09C
:101490009E5F0C943C091F93CF93DF93182FEB01B1
:1014A0008DE0189FB00111247E5F4CE050E0CE012A
:1014B0000E94F808892B71F48CE0FE0111928A9544
:1014C000E9F7BE01812F0E94420A80E0DF91CF91AF
:1014D0001F91089581E0FACF4F925F926F927F92B1
:1014E0008F929F92AF92BF92CF92DF92EF92FF9234
:1014F0000F931F93CF93DF93CDB7DEB762970FB6ED
:10150000F894DEBF0FBECDBF9A8B898B2A013B01B9
:101510005901FC0167A970AD81AD92AD0E94EE2C1E
:101520006B017C01A30192010E94452F0E94252C92
:101530000E94BF2C2B013C01E989FA8943A254A2E5
:1015400065A276A2A5019801C701B6010E94452FA8
:101550000E94252C0E94BF2C4B015C01E989FA896D
:1015600087A290A6A1A6B2A623A534A545A556A5F7
:10157000A2E3B0E00E9476300E94F02C20E030E040
:1015800040E752E40E94452F0E94B82C69837A8379
:101590008B839C830E94F02C6D837E838F8398873E
:1015A000C301B2010E94EE2C2B013C01A701960160
:1015B000C701B6010E94452F6B017C01A301920176
:1015C000C301B2010E94452F69877A878B879C8768
:1015D0002D813E814F815885CA01B9010E94472B58
:1015E0006D877E878F87988B29853A854B855C85AB
:1015F000C701B6010E94462B2D853E854F8558892F
:101600000E94462C0E94252C0E94B82C2B013C01E4
:10161000C501B4010E94EE2C9B01AC010E94452F34
:101620004B015C01A70196010E94462B6B017C01D6
:1016300069817A818B819C81909580957095619567
:101640007F4F8F4F9F4F0E94F02C9B01AC010E9457
:10165000472B9B01AC01C701B6010E94462C0E949A
:101660002B2DE989FA89C584D684E784F088A701FF
:101670009601241935094609570929833A834B8372
:101680005C830E94B82C29813A814B815C81261BA6
:10169000370B480B590BDA01C901B7FF3BC0C70133
:1016A000B6010E94F02C2D853E854F8558890E94F9
:1016B000452F29853A854B855C850E94462BA501DF
:1016C00094010E94472B4B015C0120E030E040E890
:1016D00050E46D817E818F8198850E94452F9B010A
:1016E000AC01C501B4010E94462C0E94252C0E9429
:1016F000B82C97FF03C060E070E0CB012B013C01E8
:10170000C414D504E604F70414F42601370180E07C
:1017100090E0DC01E989FA8947A650AA61AA72AA79
:10172000480E591E6A1E7B1E43AA54AA65AA76AAB1
:1017300062960FB6F894DEBF0FBECDBFDF91CF919A
:101740001F910F91FF90EF90DF90CF90BF90AF90DF
:101750009F908F907F906F905F904F9008954F92E1
:101760005F926F927F928F929F92AF92BF92CF9231
:10177000DF92EF92FF920F931F93CF93DF93F0903E
:101780000D06D0E0C0E08BE3E82E80910E068F15A9
:10179000F1F18F2D90E0FE9C90011124A901495197
:1017A0005E4F6A01209761F129A1211104C0FA015D
:1017B00021A1222329F189889A88AB88BC88E89ED8
:1017C000F001E99EF00D1124E951FE4FA5019401AD
:1017D000658976898789908D0E94462C2B013C0172
:1017E000A50194016D897E898F89988D0E94462C70
:1017F000AB01BC0193018201CE010E946C0A19A2C7
:10180000F39452E1F51201C0F12CE601BECFC98874
:10181000DA88EB88FC88A701960160E070E0CB01D4
:101820000E94462C4B015C01A70196016D897E89BF
:101830008F89988D0E94462CAB01BC0195018401D3
:10184000CE010E946C0A19A2DF91CF911F910F91D6
:10185000FF90EF90DF90CF90BF90AF909F908F90D0
:101860007F906F905F904F9008953F924F925F925C
:101870006F927F928F929F92AF92BF92CF92DF92A0
:10188000EF92FF920F931F93CF93DF93CDB7DEB705
:1018900068970FB6F894DEBF0FBECDBF80917B0670
:1018A0008823C9F130907B06832D807679F186E01C
:1018B00080937A0685E793E036FE45C00E940706CE
:1018C0008AE693E00E9407068DE493E00E940706F3
:1018D00084EF91E00E94B6088BE493E00E94070633
:1018E00089E393E00E9407068EEF92E00E940706CC
:1018F00080917B068F7E80937B0680917B0684FFA0
:10190000FCCF80917B068F7980937B0634FE2AC0C2
:1019100081E08093790668960FB6F894DEBF0FBE1B
:10192000CDBFDF91CF911F910F91FF90EF90DF908E
:10193000CF90BF90AF909F908F907F906F905F906F
:101940004F903F9008950E94070687E593E00E941C
:1019500007068DE493E00E94070684EF91E00E9461
:10196000B608CFCF30FEB7C08CE0ECE7F6E0DE0182
:101970001D9601900D928A95E1F7E0917A06E83084
:1019800088F4F0E0EA53F34F0C947030CE0CD20C94
:101990000A0E0D0E100E130E160E190E88EF92E0A1
:1019A0000E9407068BEC92E00E9407066E018DE014
:1019B000C80ED11C93E4A92E96E0B92E8E010F5FBC
:1019C0001F4F4E01E9E18E0E911C7801F6016191E5
:1019D0007191819191916F01F501419051906190C8
:1019E00071905F010E94F02CA30192010E94462C8D
:1019F0003701F701608371838283938320916606A8
:101A000020FF0BC02BE832E441E25DE30E94452F4A
:101A1000F7016083718382839383F4E0EF0EF11CFE
:101A2000F30160817181828193810E94FC0489ECC1
:101A300092E00E940706C814D90441F683EC92E0B4
:101A40000E94070686EAC82E86E0D82EF12C58019F
:101A5000F8014080518062807380F601619171913C
:101A6000819191916F0120853185428553850E9436
:101A7000472B2091660620FF06C02BE832E441E2A6
:101A80005DE30E94452F9B01AC01C301B2010E949E
:101A9000462BF80160837183828393830C5F1F4F11
:101AA000F50160817181828193810E94FC04F2E0E2
:101AB000FF1621F081EC92E00E940706F39483E088
:101AC000F812C5CF8DEB92E00E94070680917B064D
:101AD0008E7F80937B0633FE0EC080917A06833022
:101AE00029F484E080937A061092880680917B0620
:101AF000877F80937B0632FE7CC0E0910F06F091D9
:101B00001006309709F498C0C584D684E784F0881D
:101B10008091240690912506A0912606B091270673
:101B2000C81AD90AEA0AFB0A00910D06EBE30E9FD8
:101B30008001112409511E4FC701B6010E94F02CEB
:101B4000F801258D368D478D50A10E94452F4B0100
:101B50005C01F80165857685878590890E94F02C67
:101B60009B01AC01C501B4010E94462CF801658FB0
:101B7000768F878F90A3C586D686E786F08A158AEA
:101B8000168A178A108E118E128E138E148E12A240
:101B900081E081A30E94CC070E948A070E94AF0BBC
:101BA00010923006109231061092320610923306CF
:101BB00060E070E0CB010E94690380E091E7A2E061
:101BC000B0E080932C0690932D06A0932E06B09340
:101BD0002F061092240610922506109226061092C7
:101BE000270682E080937A0680917B068B7F809324
:101BF0007B0631FE90CE0E94D4048091660681FF60
:101C000003C081E08093880680917B068D7F80935E
:101C10007B0681CE81EF92E0C3CE8CEE92E0C0CE07
:101C200086EE92E0BDCE80EE92E0BACE89ED92E0F3
:101C3000B7CE82ED92E0B4CE10927A06D5CF9091D5
:101C40000E0680910D06981749F080910D060E94AE
:101C5000350C80917906882391F304C080917A062F
:101C60008330A9F308952F923F924F925F926F9223
:101C70007F928F929F92AF92BF92CF92DF92EF921C
:101C8000FF920F931F93CF93DF93CDB7DEB7E1970A
:101C90000FB6F894DEBF0FBECDBF2B013C012983E8
:101CA0003A834B835C83ED8AFE8A0F8B188FA98A57
:101CB000BA8ACB8ADC8A89A280917A06873009F4B5
:101CC000EAC30E94350C809179068111E4C38091AA
:101CD0000D062091060129AB821799F380910E061B
:101CE000282E312C409143065091440660914506C0
:101CF000709146064D835E836F8378879A01AB01AE
:101D0000C301B2010E94452F0E94122F6DA37EA332
:101D10008FA398A7409047065090480660904906C8
:101D200070904A0649865A866B867C86A30192018A
:101D300069817A818B819C810E94452F0E94122F9C
:101D400069A77AA78BA79CA740904B0650904C069A
:101D500060904D0670904E064D865E866F86788A3E
:101D6000A30192016D897E898F89988D0E94452FEC
:101D70000E94122F6DA77EA78FA798AB8BE3829D41
:101D8000F001839DF00D1124E951FE4F10828091E6
:101D9000070190910801A0910901B0910A014DA09D
:101DA0005EA06FA078A4481659066A067B0614F454
:101DB00020E4208300910B0110910C0120910D0172
:101DC00030910E0149A45AA46BA47CA4401651067C
:101DD000620673065CF44BE3429DF001439DF00DF7
:101DE0001124E951FE4F408140684083C0900F01AB
:101DF000D0901001E0901101F09012014DA45EA46A
:101E00006FA478A84C145D046E047F045CF44BE36B
:101E1000429DF001439DF00D1124E951FE4F408198
:101E2000416040834DA15EA16FA178A5481B590B6D
:101E30006A0B7B0B4D8B5E8B6F8B788F77FF0BC0A4
:101E400088279927DC01841B950BA60BB70B8D8B7C
:101E50009E8BAF8BB88F9BE3B92EB29CF001B39CE5
:101E6000F00D1124E951FE4F4D885E886F88788C03
:101E7000418252826382748289A49AA4ABA4BCA4D6
:101E8000801A910AA20AB30A95018401B7FE07C01D
:101E9000002711279801081919092A093B098BE322
:101EA000782E729CF001739CF00D1124E951FE4FC5
:101EB00005831683278330874DA45EA46FA478A87A
:101EC0004C185D086E087F0873016201F7FE07C0B9
:101ED0004424552432014C185D086E087F089BE3AA
:101EE000929DD001939DB00D1124FD01E951FE4F4B
:101EF00041865286638674868D899E89AF89B88DA6
:101F000080179107A207B30710F4D901C80189838C
:101F10009A83AB83BC8384159505A605B70520F489
:101F200049825A826B827C828BE3829D8001839DF1
:101F3000100D112409511E4F49805A806B807C80FE
:101F4000D8011D964D925D926D927C9250974528D6
:101F50004628472809F467C2CB01BA010E94F02C39
:101F60002D813E814F8158850E94462C698F7A8F42
:101F70008B8F9C8FC501B4010E94F02C29853A8576
:101F80004B855C850E94462C6D8F7E8F8F8F98A32A
:101F9000C701B6010E94F02C2D853E854F855889DA
:101FA0000E94462C4B015C01298D3A8D4B8D5C8D36
:101FB000CA01B9010E94452F6B017C012D8D3E8D18
:101FC0004F8D58A1CA01B9010E94452F9B01AC0158
:101FD000C701B6010E94472B6B017C01A50194014A
:101FE000C501B4010E94452F9B01AC01C701B60198
:101FF0000E94472B0E94E42F6D8B7E8B8F8B988FD6
:10200000F801658F768F878F90A39B01AC0160E00C
:1020100070E080E89FE30E94462C2B013C01F9A16F
:10202000F11126C2AC019B0169897A898B899C894F
:102030000E94452F6B017C01AC019B016D897E895B
:102040008F89988D0E94452F6D8379878D87998B15
:102050008BE3829D8001839D100D112409511E4F39
:10206000CB01AD85B989F801818B928BA38BB48BA1
:1020700069817A818B819C810E94F02C69A37AA36B
:102080008BA39CA39B01AC01C701B6010E94452F05
:102090000E94252C0E94BF2CD801D7966D937D936A
:1020A0008D939C93DA9720915E0630915F06409164
:1020B00060065091610629833A834B835C8329A192
:1020C0003AA14BA15CA1C301B2010E94452F298115
:1020D0003A814B815C810E94452F20E030E84BE340
:1020E00055E40E94462C0E94252C0E94B82CD80151
:1020F0009B966D937D938D939C939E97A3019201E4
:10210000698D7A8D8B8D9C8D0E94452F698F7A8F7A
:102110008B8F9C8FA30192016D8D7E8D8F8D98A1E9
:102120000E94452F6D8F7E8F8F8F98A3A301920100
:10213000C501B4010E94452F2B013C0190910E0670
:1021400080910D06981709F49EC1E0901F01F09050
:102150002001009121011091220120E030E0A9012D
:10216000B701C8010E945E2E18160CF08CC1609158
:1021700013017091140180911501909116019058EE
:10218000298D3A8D4B8D5C8D0E94452F4B015C0152
:1021900020911701309118014091190150911A01B5
:1021A0006D8D7E8D8F8D98A10E94452F9B01AC0176
:1021B000C501B4010E94462B4B015C0120911B011B
:1021C00030911C0140911D0150911E01C301B201CB
:1021D0000E94452F9B01AC01C501B4010E94462B12
:1021E0004B015C0123E333E343E75FE30E943C2CB4
:1021F00087FF49C19701A8016D8179858D859989EE
:102200000E945E2E181624F0ED80F9840D85198940
:1022100023E333E343E75FEBC501B4010E945E2E85
:1022200018160CF044C0A501940160E070E080E84D
:102230009FE30E94462B20E030E040E05FE30E94F5
:10224000452F0E94E42F4B015C01209162063091E2
:102250006306409164065091650669817A818B819D
:102260009C810E94452FA50194010E94452F69A3DE
:102270007AA38BA39CA3A501940160E070E080E8A1
:102280009FE30E94462B9B01AC0169A17AA18BA11F
:102290009CA10E94462C0E94E42F5B016C019701D7
:1022A000A8010E945E2E181614F0750186018BE3BA
:1022B000829DF001839DF00D1124E951FE4FC7016D
:1022C000D801818F928FA38FB48F69817A818B819E
:1022D0009C8190589B01AC010E94472B2D893E891F
:1022E0004F89588D0E94452F9B01AC0160E070E042
:1022F000CB010E94462B0E94E42F5B016C019B01E5
:10230000AC01B701C8010E943C2C87FD02C07501D9
:1023100086012BE3229DC001239D900D1124FC0119
:10232000E951FE4F4F01C701D801858B968BA78BD2
:10233000B08F9501A6016D8179858D8599890E945F
:102340003C2C18160CF4A4C081E0D40192968C9316
:102350008BE3829DF001839DF00D1124E951FE4F26
:1023600081E081A3298D3A8D4B8D5C8D20931301E3
:102370003093140140931501509316014D8D5E8DDD
:102380006F8D78A140931701509318016093190144
:1023900070931A0140921B0150921C0160921D0122
:1023A00070921E018D819985AD85B98980931F0139
:1023B00090932001A0932101B093220149A840925B
:1023C0000E0680910E068F5F823109F480E08093C3
:1023D00006014DA05EA06FA078A440920701509224
:1023E00008016092090170920A0149A45AA46BA4E1
:1023F0007CA440920B0150920C0160920D017092EE
:102400000E014DA45EA46FA478A840920F015092D3
:10241000100160921101709212010E94CC070E947B
:102420008A070E94AF0B80917A06811103C082E077
:1024300080937A0680918806882369F1E1960FB629
:10244000F894DEBF0FBECDBFDF91CF911F910F91EA
:10245000FF90EF90DF90CF90BF90AF909F908F90C4
:102460007F906F905F904F903F902F900C94D4048A
:1024700029893A894B895C8960E070E080E89FE3B4
:102480000E94462CD7CDE12CF12C00E010E00FCFBC
:10249000F40112A25DCFE1960FB6F894DEBF0FBE35
:1024A000CDBFDF91CF911F910F91FF90EF90DF9003
:1024B000CF90BF90AF909F908F907F906F905F90E4
:1024C0004F903F902F9008952F923F924F925F929E
:1024D0006F927F928F929F92AF92BF92CF92DF9234
:1024E000EF92FF920F931F93CF93DF93CDB7DEB799
:1024F000CD55D1090FB6F894DEBF0FBECDBF1AA6D9
:10250000FE0179968CE0DF01282F1D922A95E9F7CC
:102510003C97DF011D928A95E9F7109289061BA668
:10252000912C312C212CCC24C394D12C25E0B22E1B
:1025300001E032E0F32E43E0E42E54E0A52EAE019C
:10254000465D5F4FBE016B5D7F4FCE0189960E9455
:102550004303892B09F454C14DA05EA06FA078A459
:10256000C301B2010E9428300E94B82CAB01CB01FC
:1025700029A5273489F02D3411F7663071050CF048
:10258000EEC0633071050CF000C177FDECC015E0C2
:10259000FDC099249394D3CF6E31710581F1CCF5B0
:1025A0006431710574F56131710514F00C94991C56
:1025B0006430710521F104F577FF41C08C3191053C
:1025C00011F40C94421D14F00C94321D84309105CA
:1025D00011F40C94851D14F00C940C1D81309105A0
:1025E00009F467C014F00C94011D10E0892B09F464
:1025F0004AC010E00C945D1D6A307105F9F611E0D7
:1026000028C017E06631710524F16C317105B1F60F
:10261000F6CF6C357105ACF46A3571050CF047C026
:102620006C33710544F419E06633710594F4653335
:10263000710529F3C3CF6035710509F0BFCF12E0F2
:1026400008C06C357105D9F216E06F3571050CF0D4
:10265000B5CF8531910511F40C942E1D14F00C9416
:10266000C11C8430910511F40C94FD1C14F00C94E1
:10267000A81C81309105F1F014F00C949C1C892B5E
:1026800011F00C945D1D10928A06112309F457CFA6
:10269000C60102C0880F991F1A95E2F79C012221FA
:1026A0003321232B09F4A9C0B092890648CF14E046
:1026B000D0CF10E000938A06E8CF10E0F0928A06AF
:1026C000E4CF10E01092A2060093A306F092A406B5
:1026D000DCCF10E00093A206F092A3061092A406AD
:1026E000D4CF10E000938C06D0CF6C3221E072077B
:1026F00059F06D32714011F00C945D1D86E08BA78E
:10270000C4CF43E04BA7C1CF55E05BA7BECF10E0DD
:10271000A0928A06BACF10E000938D06B6CF10E0E3
:1027200020E030E040E251E4C301B2010E94452FB5
:102730000E9428300E94B82C683993E0790741F054
:102740006939734011F00C945D1DF8E0FBA79DCF33
:10275000B7E0BBA79ACF10E000938B0696CF6E31FF
:10276000710509F414CF0A9708F043CFFA01E55434
:10277000FC4E0C947030D7139F12DB13DF13E3135E
:10278000E813F912F912EC13F01318E084309105F4
:10279000D9F014F00C94931D8130910509F478CF91
:1027A00014F00C94891D892B19F00C945D1D10E018
:1027B00000938E066ACF10E0F0928E0666CF10E08E
:1027C00000938F0662CF10E08FEF80938F065DCF6E
:1027D00010E010928F0659CF10E00093900655CF6D
:1027E00010E01092900651CFE4E0EBA74ECF22E02C
:1027F0002BA74BCF992493944BCF282A392A9FCECD
:1028000080918906811170C11AA600E010E01CA613
:102810001DA61EA61FA6412C512C32011CAA1DAAC2
:1028200030E83EAB4FEB4FABB3E0AB2E86E0882EEB
:10283000AE01465D5F4FBE016B5D7F4FCE01899655
:102840000E944303892B09F419C1E9A4EAEBEE0DB8
:10285000E53108F010C10E2E000CFF0BEE5CFB4EB4
:102860000C9470304C1418143B158C148C148C146C
:10287000AF14181418143B15B9143B15BE14DA1410
:10288000E8143B153B153B15FF1413152715BCAA7F
:10289000CDAAEEAAFFAACCCFBDA0CEA0EFA0F8A4EF
:1028A00020E030E0A9016B2D7C2DC7010E943C2C5B
:1028B000181614F08092890680918C0690918B06F0
:1028C000992381F0882319F323E333E34BEC51E49C
:1028D0006B2D7C2DC7010E94452F6CAB7DAB8EAB61
:1028E0009FABA6CF882361F023E333E34BEC51E4A5
:1028F0006B2D7C2DC7010E94452FB62EC72E7C0163
:102900008B2D9C2DD7018093910690939206A093D6
:102910009306B09394068CCF6DA17EA18FA198A54C
:102920000E2C000CFF0859E4E51AF10820918C06E2
:10293000222331F023E333E34BEC51E40E94452F93
:10294000EE0CFF1CEE0CFF1CE1E0F0E0EC0FFD1FB5
:10295000EE0DFF1D648775878687978769CF6DA108
:102960007EA18FA198A50E9428300E94BF2C062F1F
:102970005FCF4DA05EA06FA078A45ACF8DA19EA17D
:10298000AFA1B8A58CA79DA7AEA7BFA780918C06C5
:10299000882309F44DCF23E333E34BEC51E46CA5DA
:1029A0007DA58EA59FA50E94452F6CA77DA78EA70C
:1029B0009FA73ECF20E030E0A9016DA17EA18FA1AD
:1029C00098A50E943C2C87FF33CF8092890630CF98
:1029D000CDA0DEA0EFA0F8A420E030E0A901C7015F
:1029E000B6010E943C2C87FD80928906C701B60182
:1029F0000E9428300E94BF2C6093A10619CF6DA1C0
:102A00007EA18FA198A520918C06222331F023E38B
:102A100033E34BEC51E40E94452F698F7A8F8B8F03
:102A20009C8F116005CF6DA17EA18FA198A52091EB
:102A30008C06222331F023E333E34BEC51E40E9474
:102A4000452F6D8F7E8F8F8F98A31260F1CE6DA171
:102A50007EA18FA198A520918C06222331F023E33B
:102A600033E34BEC51E40E94452F69A37AA38BA377
:102A70009CA31460DDCEA0928906DACE80918906EF
:102A8000811132C080917A06873011F1F0908F0663
:102A90008F2D0F2C000C990B209141062817190639
:102AA00049F00E941F0EFF20D9F1C4F12898289AFE
:102AB000F0924106F090900680914206F81641F09F
:102AC0000E941F0E91E0F9122EC0289AF092420641
:102AD00031FE35C0BE016F5F7F4F8091A5060E9419
:102AE0004B0A811123C08AE0C35ADF4F0FB6F89416
:102AF000DEBF0FBECDBFDF91CF911F910F91FF9031
:102B0000EF90DF90CF90BF90AF909F908F907F908D
:102B10006F905F904F903F902F900895289AC7CF65
:102B20000E94DE04C5CF0E94DE04D0CF8CE0FE01FF
:102B30003196A6EAB6E001900D928A95E1F7EBA5F1
:102B4000E150E830C8F4F0E0E855FA4E0C947030EB
:102B5000B015A5161117A9171117A917B417F7174C
:102B600020E030E0A901C301B2010E943C2C87FFA4
:102B70009FC086E08093890622FC03C0112309F4DC
:102B800085C0B0918B06BBA7BB2309F438C220E0F7
:102B900030E0A9016CA97DA98EA99FA90E943C2CB7
:102BA00087FF2DC280918A06843009F4D1C786E060
:102BB0008093890686E0992009F496CF80918A0651
:102BC000823008F0C8C78091890681118DCF0091AD
:102BD0008D0679E8C72E76E0D72E7E01E9E1EE0E6C
:102BE000F11CB12CA12C612E712CC3010A2C02C046
:102BF000959587950A94E2F780FF0CC291101DC04D
:102C0000D7012D903D904D905C90002309F4FAC1BE
:102C1000F60121A532A543A554A5658D768D878D36
:102C200090A10E94472BA20191010E94472BD7013E
:102C30006D937D938D939C931397FFEFAF1ABF0A0B
:102C400024E0C20ED11C34E0E30EF11C43E0A416D4
:102C5000B10459F650918A0658AF543008F0E5C1D6
:102C6000523008F02AC2552309F4EAC1513009F460
:102C700001C280918906811137CF8CE0FE017996DF
:102C8000A5E9B6E001900D928A95E1F780918E0654
:102C9000882359F00E941F0E1092880680918E069C
:102CA000823009F043C60E94DA08809189061CCF61
:102CB00080917A06873009F45FCF20E030E040EA67
:102CC00051E4C301B2010E94452F0E942B2D0E94A6
:102CD000BF2C5B017B010E941F0E20E030E04AE721
:102CE00054E4C301B2010E94452F2B013C0182E351
:102CF0008A9DB0018B9D700D112490E080E00E94B0
:102D0000EE2C9B01AC01C301B2010E94462B0E9434
:102D10002B2D0E94BF2CCB010E94B608E114F104B8
:102D200009F42ACF0E94350CA1E0EA1AF10880913B
:102D30007906811121CFBFEFE0E7F2E0B150E0402A
:102D4000F040E1F700C00000E9CFC301B2010E94EA
:102D50002830023011F0043151F40E94B82C7B016C
:102D600021E0E21AF10836E0E316F10428F083E0EE
:102D70008093890610E000CF111104C0023011F4D5
:102D800086E0F6CF0431A1F465E976E08E2D0E944D
:102D9000420A8091A5068E151F0461F78CE0E5E9D3
:102DA000F6E0A6EAB6E001900D928A95E1F7E2CF4F
:102DB000BE016F5F7F4F8E2D0E944B0A882309F45E
:102DC00092CEDE015996FE01319690E080E0212FEF
:102DD00030E0A901082E02C0559547950A94E2F704
:102DE00040FF09C04D915D916D917C911397408397
:102DF00051836283738301961496349683309105D0
:102E000041F7BE016F5F7F4F8E2D0E94420A809175
:102E1000A5068E151F0409F0ADCF8CE0FE0131969A
:102E2000C0CF112309F458C080908D06F9E8CF2E49
:102E3000F6E0DF2E7E0149E1E40EF11CB12CA12C5D
:102E4000012F10E0C8010A2C02C0959587950A94BD
:102E5000E2F780FF73C0D7014D905D906D907C903C
:102E6000882009F463C0F60121A532A543A554A525
:102E7000658D768D878D90A10E94472BA3019201CD
:102E80000E94472BD7016D937D938D939C9313974D
:102E9000FFEFAF1ABF0A24E0C20ED11C34E0E30EEC
:102EA000F11C43E0A416B10469F6A0905506B09059
:102EB0005606C0905706D0905806E9A0FAA00BA17C
:102EC0001CA12D8D3E8D4F8D58A1698D7A8D8B8DD6
:102ED0009C8D812C0E94330E5BA586E0553009F451
:102EE00087E0BE016F5F7F4F0E944B0A882309F481
:102EF000FACDA0905506B0905606C0905706D090D7
:102F00005806E984FA840B851C852D813E814F810A
:102F1000588569817A818B819C81812C0E94330E36
:102F20008CE0FE013196A5E9B6E03DCFA301920108
:102F3000F6016485758586859785A2CFF60184851F
:102F40009585A685B785F70180839183A283B38396
:102F50009FCF8BA5863031F086E065E976E00E9450
:102F6000420A0ACE87E0F9CF112309F409CFE9E834
:102F7000EE2EE6E0FE2E5E0199E1A90EB11CD12CE9
:102F8000C12C012F10E0C8010C2C02C0959587952B
:102F90000A94E2F780FF1DC0D7015D962D913D9107
:102FA0004D915C9190971C966D917D918D919C9126
:102FB0001F970E94462BF501208131814281538168
:102FC0000E94462BD70199966D937D938D939C9388
:102FD0009C97BFEFCB1ADB0AE4E0EE0EF11CF4E0A5
:102FE000AF0EB11C23E0C216D10469F6C3CEE2EBEA
:102FF000F6E08CE0DF011D928A95E9F7BDCD9110D6
:10300000DDCDE1CDA2019101F6016485758586854E
:1030100097850BCEF60184859585A685B785F70142
:1030200080839183A283B38308CE88AD843009F076
:1030300020CE112309F41DCE86E08093890619CE97
:103040001123D1F3A0905506B0905606C0905706B4
:10305000D0905806E9A0FAA00BA11CA12D8D3E8DA1
:103060004F8D58A1698D7A8D8B8D9C8D812C0E94FE
:10307000330EFFCD112301F39BA591110CC0A0913C
:103080009106ACABB0919206BDABE0919306EEAB6E
:10309000F0919406FFABE9A0FAA00BA11CA12D8D25
:1030A0003E8D4F8D58A1698D7A8D8B8D9C8D8BA413
:1030B000ACA8BDA8CEA8DFA8DACF2091A40628AB83
:1030C000422F50E06A965FAF4EAF6A9781E090E082
:1030D00001C0880F2A95EAF78095182309F4ACCF30
:1030E0003090A206E32CF12C2090A306022D10E0D4
:1030F00020E030E0A9016CA57DA58EA59FA50E94CA
:103100003C2CD701AA0FBB1FAA0FBB1F2296BFAF33
:10311000AEAF2297F801EE0FFF1FEE0FFF1F2496B0
:10312000FFAFEEAF2497811136C0E1E0F0E0EC0F85
:10313000FD1FEA0FFB1FC484D584E684F784E1E019
:10314000F0E0EC0FFD1F24962EAD3FAD2497E20F6B
:10315000F31F84849584A684B78420E030E0A9011D
:10316000C701B6010E943C2C81110AC020E030E06A
:10317000A901C501B4010E943C2C882309F45CCF4D
:10318000A5019401C701B6010E94712E6CA77DA70D
:103190008EA79FA7EBC0A1E0B0E0AC0FBD1F2296A9
:1031A0004EAD5FAD2297A40FB51FF701EE0FFF1FC5
:1031B000EE0FFF1FEB56F94F208131814281538181
:1031C00058966D917D918D919C915B970E94462BB5
:1031D0004B015C01E1E0F0E0EC0FFD1F24968EADA9
:1031E0009FAD2497E80FF91F000F111F000F111F4B
:1031F000D801AB56B94F2D913D914D915C91608DA9
:10320000718D828D938D0E94462B2B013C01FE0116
:103210003D968CE0DF011D928A95E9F720E030E0D1
:1032200040E850E46CA57DA58EA59FA50E94452F82
:103230002CA53DA54EA55FA50E94452F6B017C01E5
:10324000A5019401C501B4010E94452F9B01AC0169
:10325000C701B6010E94462B6B017C01A3019201BC
:10326000C301B2010E94452F9B01AC01C701B60109
:103270000E94462B6B017C0120E030E0A9010E94F6
:103280003C2C87FF04C084E0809389062DCCC701C5
:10329000B6010E94E42F6B017C01A3019201C501DC
:1032A000B4010E94712E9B01AC01C701B601905878
:1032B0000E94462C6B017C01B8ADB33021F4F7FAC3
:1032C000F094F7F8F09420E030E0A9016CA57DA51A
:1032D0008EA59FA50E943C2C87FF04C0F7FAF094AE
:1032E000F7F8F09401E010E00C0F1D1F2296EEADF0
:1032F000FFAD22970E0F1F1FA7019601C301B20158
:103300000E94452F9B01AC01C501B4010E94462BD0
:1033100020E030E040E05FE30E94452FD8011C969A
:103320006D937D938D939C931F9701E010E00C0F9C
:103330001D1F2496EEADFFAD24970E0F1F1FA70192
:103340009601C501B4010E94452FA30192010E947C
:10335000472B20E030E040E05FE30E94452FD8019A
:103360001C966D937D938D939C931F97BBA5B11174
:103370000CC0E0919106ECABF0919206FDAB209170
:1033800093062EAB309194063FAB44E0349E80010F
:1033900011248DE090E08C0F9D1F800F911F2E96C1
:1033A0009FAF8EAF2E97DC014D905D906D907C901D
:1033B000F801EB56F94F2081318142815381C301DD
:1033C000B2010E94472B62966CAF7DAF8EAF9FAF6C
:1033D0006297B4E02B9E50011124EDE0F0E0EC0F79
:1033E000FD1FEA0DFB1D6496FFAFEEAF6497C08032
:1033F000D180E280F380F501EB56F94F20813181D5
:1034000042815381C701B6010E94472B68966CAF79
:103410007DAF8EAF9FAF689728A9F4E02F9FC001C2
:103420001124FC01EB56F94F2081318142815381F7
:103430002CAF3DAF4EAF5FAF49E150E04C0F5D1F89
:10344000840F951F2CAD3DAD4EAD5FADDC016D9190
:103450007D918D919C910E94462B28966CAF7DAFFB
:103460008EAF9FAF289777FA709477F87094A70182
:103470009601505828AB39AB4AAB5BABE9E1F0E0C1
:10348000EC0FFD1FE00FF11F62962CAD3DAD4EAD70
:103490005FAD629760817181828193810E94462B2A
:1034A0006B017C01E9E1F0E0EC0FFD1FEA0DFB1D73
:1034B00068962CAD3DAD4EAD5FAD68976081718172
:1034C000828193810E94462B4B015C01A7019601EA
:1034D000C301B2010E94452F2C966CAF7DAF8EAF19
:1034E0009FAF2C97A501940168A979A98AA99BA9E6
:1034F0000E94452F9B01AC012C966CAD7DAD8EAD2D
:103500009FAD2C970E94472B2C966CAF7DAF8EAF52
:103510009FAF2C97A5019401C301B2010E94452FD2
:103520004B015C01A701960168A979A98AA99BA909
:103530000E94452F9B01AC01C501B4010E94462B9E
:103540002C962CAD3DAD4EAD5FAD2C970E94C62B99
:103550006B017C0138AD323009F06EC120E030E003
:10356000A9010E945E2E87FD0AC02BED3FE049ECC9
:1035700050E4C701B6010E94462B6B017C01A701F4
:1035800096016CA57DA58EA59FA50E94452F289626
:103590002CAD3DAD4EAD5FAD28970E94712E4B0115
:1035A0005C0120E030E0A9010E943C2C882309F452
:1035B00060CB20915A0630915B0640915C06509199
:1035C0005D06C501B4010E94462C0E942B2D0E946D
:1035D000BF2C2A967FAF6EAF2A9790E080E00E94C2
:1035E000EE2C4B015C014BA5442361F0AC019B0127
:1035F0006CA97DA98EA99FA90E94452F6CAB7DABBC
:103600008EAB9FABA5019401C701B6010E94462C69
:103610006CA77DA78EA79FA7A501940128966CADE6
:103620007DAD8EAD9FAD28970E94462C6E966CAFF7
:103630007DAF8EAF9FAF6E9720E030E040E05FE35C
:103640006CA57DA58EA59FA50E94452F2CA53DA507
:103650004EA55FA50E94452F9B01AC0160E070E084
:1036600080E89FE30E94462B68AF79AF8AAF9BAF9B
:103670006A96EEADFFAD6A97EE0FFF1FEE0FFF1FCC
:1036800081E090E08C0F9D1FE80FF91F2CAD3DAD40
:103690004EAD5FAD2083318342835383912C22242E
:1036A0002394312CAC0122968EAD9FAD2297480F0A
:1036B000591F22965FAF4EAF2297A1E0B0E0AC0F4A
:1036C000BD1F24962EAD3FAD2497A20FB31F2496A5
:1036D000BFAFAEAF24972696FFAFEEAF26972A96E0
:1036E0004EAD5FAD2A972416350608F0D4CC209154
:1036F0007806892D092C000C990B2817190609F05A
:103700000CF4ABC0A30192016CA57DA58EA59FA56D
:103710000E94452F6B017C0128A939A94AA95BA900
:1037200068AD79AD8AAD9BAD0E94452F9B01AC0180
:10373000C701B6010E94472B5B018C01A3019201D6
:1037400068AD79AD8AAD9BAD0E94452F6B017C01C0
:1037500028A939A94AA95BA96CA57DA58EA59FA515
:103760000E94452F9B01AC01C701B6010E94462B68
:103770002B013C01939465017801C8AAD9AAEAAA51
:10378000FBAAA301920162966CAD7DAD8EAD9FAD9B
:1037900062970E94472B2296EEADFFAD2297608381
:1037A00071838283938328A939A94AA95BA9689662
:1037B0006CAD7DAD8EAD9FAD68970E94472B249672
:1037C000AEADBFAD24976D937D938D939C9313976E
:1037D0006E962CAD3DAD4EAD5FAD6E972696EEADBF
:1037E000FFAD269760817181828193810E94472B72
:1037F0002696AEADBFAD26976D937D938D939C932A
:103800001397E984FA840B851C852D813E814F81B5
:10381000588569817A818B819C818BA4ACA8BDA8D5
:10382000CEA8DFA80E94330E80917906811121CAAB
:10383000BFEF2B1A3B0A53CF20E030E0A9010E94D2
:103840003C2C18160CF49BCE2BED3FE049EC50E4D9
:10385000C701B6010E94472B90CEB10190E080E0F5
:103860000E94EE2C2CA53DA54EA55FA50E94452FDC
:103870006B017C010E94412C68AB79AB8AAB9BAB9E
:10388000C701B6010E94D62F4B015C012E96AEAD4A
:10389000BFAD2E97CD90DD90ED90FC90F7FAF094AF
:1038A000F7F8F0946496AEADBFAD64972D913D915D
:1038B0004D915C912CAF3DAF4EAF5FAFA70196012C
:1038C00068A979A98AA99BA90E94452F2B013C01CF
:1038D0002CAD3DAD4EAD5FADC501B4010E94452F8D
:1038E0009B01AC01C301B2010E94472B2B013C019B
:1038F000A7019601C501B4010E94452F6B017C010F
:103900002CAD3DAD4EAD5FAD68A979A98AA99BA943
:103910000E94452F9B01AC01C701B6010E94462BB6
:1039200068AB79AB8AAB9BAB912C2BCF10928E06F8
:10393000BCC913E00C9429138230910511F40C9446
:103940005E13039709F0B9C0E0928A060C94451300
:103950008231910509F470C054F48A30910511F454
:103960000C94F713419711F40C946213A6C08331A1
:10397000910511F40C946A13449711F40C9472138A
:103980009CC08035910511F40C948813B4F48533F0
:10399000910511F40C94FA1344F48C31910509F457
:1039A00072C04E9709F46FC088C0CC970CF085C0E8
:1039B00046534093A5060C9445138C35910511F49C
:1039C0000C9490136CF48A35910511F40C948C13BB
:1039D0008B35910509F071C010928D060C9445133A
:1039E0008D35910511F40C94AC138E35910509F0C9
:1039F00064C010928B060C944513E1E0EBA70C9485
:103A000048138230910511F40C945D1310E0039774
:103A100009F49ACF0C94F9128331910511F40C94A6
:103A2000691394F48131910511F40C94611310E041
:103A3000429711F00C94F9121092A206F092A3068C
:103A40000093A4060C9445138431910511F40C9451
:103A5000711310E0459711F00C94F91210928C0636
:103A60000C9445138035910511F40C9487137CF563
:103A70008533910511F40C94C9121CF54E9711F081
:103A80000C94F91210E020E030E040E251E4C30170
:103A9000B2010E94452F0E9428300E94B82C693143
:103AA000B1E07B0711F40C94F41314F00C9475132B
:103AB0006831714011F40C948113E09289060C94E2
:103AC000451310E0CC970CF473CF0C94F9128C359D
:103AD000910511F40C948F1364F48A35910511F457
:103AE0000C948B1310E08B35910509F475CF0C9471
:103AF000F9128D35910511F40C94AB1310E08E354D
:103B0000910509F476CF0C94F912F1E0FBA70C941F
:103B10009F128230910511F40C94DC13039711F479
:103B20000C94E013CACF8830910511F40C94ED1376
:103B30002CF4059711F40C94E913BFCF893091054B
:103B400011F40C94F1134E9711F40C94DC13B5CFCF
:103B5000992009F438C886E08093890634C80F9309
:103B60001F93CF93C0E08C2F0E947809811106C06B
:103B70008AE00E9415061CC0C1E0F5CF8091BE0608
:103B80008823B1F00EEB16E0F80181918F018823B4
:103B900019F00E94E004F8CF80917A06863071F027
:103BA0000E9464128111E5CF88EB92E00E94070623
:103BB000C13011F7CF911F910F9108958CE0D9CFAB
:103BC0002F923F924F925F926F927F928F929F922D
:103BD000AF92BF92CF92DF92EF92FF920F931F931B
:103BE000CF93DF93CDB7DEB7AC970FB6F894DEBFB7
:103BF0000FBECDBF382E6D87242E098B1A8B2B8BD1
:103C00003C8B8CE0FE013196DF011D928A95E9F72D
:103C100010E030FE0FC06091430670914406809121
:103C20004506909146060E94122F69837A838B8302
:103C30009C8311E031FE0FC01F5F609147067091B9
:103C400048068091490690914A060E94122F6D8382
:103C50007E838F83988732FE0FC01F5F60914B0673
:103C600070914C0680914D0690914E060E94122F45
:103C700069877A878B879C874D815E816F81788584
:103C8000C980DA80EB80FC80C416D506E606F7060C
:103C900010F46A017B0149855A856B857C85C416C1
:103CA000D506E606F70610F46A017B01612F70E085
:103CB00090E080E00E94EE2C0E94E42F2B013C015A
:103CC000C701B6010E94EE2CA30192010E94462C6E
:103CD0004B015C0120915E0630915F0640916006C9
:103CE000509161060E94452F20E030E84BE355E4F7
:103CF0000E94462C0E94252C0E94BF2C6DA37EA3FF
:103D00008FA398A729893A894B895C89C301B2019D
:103D10000E94452FA50194010E94452F9B01AC01F3
:103D200060EC71EE84E69CE40E94462C0E94122F07
:103D30002B013C015C014B01B8EF4B16B4E25B0672
:103D4000B1E06B06710438F038EF832E34E2932E25
:103D5000AA24A394B12C10916706117C8091590676
:103D600018272D85211102C081EC1827D701C60123
:103D7000B695A7959795879522273327A901281BE4
:103D8000390B4A0B5B0B2D873E874F87588B8091F1
:103D90005006A5019401281B31094109510929A3A5
:103DA0003AA34BA35CA38D859E85AF85B889898F87
:103DB0009A8FAB8FBC8F8D8B9E8BAF8BB88F20E192
:103DC00037E240E050E0298B3A8B4B8B5C8B1D8EA9
:103DD0001E8E1F8E18A201E0E3B1222011F032E006
:103DE000E32730FEEBC049815A816B817C818D8550
:103DF0009E85AF85B889840F951FA61FB71F89A719
:103E00009AA7ABA7BCA78D879E87AF87B88B1816DC
:103E100019061A061B060CF0D1C0612F6027E1FDC0
:103E200003C0E89430F8612F29A53AA54BA55CA5FD
:103E30002C193D094E095F092D873E874F87588B06
:103E400031FE28C08D819E81AF81B8852D893E8944
:103E50004F89588D820F931FA41FB51F89A79AA75A
:103E6000ABA7BCA78D8B9E8BAF8BB88F181619068E
:103E70001A061B067CF4E1FFA3C0602789A59AA55A
:103E8000ABA5BCA58C199D09AE09BF098D8B9E8B76
:103E9000AF8BB88F32FE28C029853A854B855C856B
:103EA000898D9A8DAB8DBC8D280F391F4A1F5B1FE2
:103EB00029A73AA74BA75CA7298F3A8F4B8F5C8F16
:103EC000121613061406150694F4E1FF7CC0602751
:103ED00029A53AA54BA55CA52C193D094E095F09FA
:103EE000298F3A8F4B8F5C8F332009F46FC09091EC
:103EF0007B0694FD6BC060FD289A60FF2898609156
:103F0000500670E090E080E00E94780815B969A141
:103F10007AA18BA19CA10E947808481459046A04D4
:103F20007B0408F059CF89899A89AB89BC89880DAF
:103F3000991DAA1DBB1D898B9A8BAB8BBC8B8132C3
:103F40002EE49207A105B10508F446CF80529E44A5
:103F5000A109B109898B9A8BAB8BBC8B8D8D9E8D02
:103F6000AF8DB8A12DA13EA14FA158A5820F931FDF
:103F7000A41FB51F8D8F9E8FAF8FB8A360E077E829
:103F800083E993E02D8D3E8D4F8D58A10E944E30D8
:103F900053014201421653066406750610F44901A6
:103FA0005A0180915006A5019401281B310941094D
:103FB000510929A33AA34BA35CA30ECF612F40CF95
:103FC000E89431F85BCFE89432F882CFAC960FB624
:103FD000F894DEBF0FBECDBFDF91CF911F910F913F
:103FE000FF90EF90DF90CF90BF90AF909F908F9019
:103FF0007F906F905F904F903F902F900895CF9358
:10400000DF93CDB7DEB769970FB6F894DEBF0FBE6A
:10401000CDBF8CE38AB98FE087B98091C0008D7FD6
:104020008093C0001092C50087E68093C400809101
:10403000C10080618093C1008091C100886080933D
:10404000C1008091C10080688093C1000E94F40883
:10405000853009F046C146E350E061E070E083E45A
:1040600096E00E94F808892B09F44BC110E0BE01CC
:104070006F5F7F4F812F0E944B0A811103C08AE03E
:104080000E9415061F5F183091F784B1816C84B9C6
:1040900085B18E7390915906892B85B9259A8091A7
:1040A00081008F7E80938100809181008860809361
:1040B0008100809180008D7F8093800080918000BE
:1040C0008E7F80938000809180008F73809380002A
:1040D000809180008F7C809380001092B0001092BD
:1040E000B100809170008160809370000E94B704DD
:1040F0000E94C0087894EBE7F6E08EE0DF011D92A5
:104100008A95E9F781E08093790680937A063324D3
:10411000339442E0942E80917906882309F495C067
:104120008091E6018093E50180910E0680930D0653
:1041300080910E068F5F823109F480E08093060142
:104140008CE1E7E0F1E011928A95E9F785E3A9E8CF
:10415000B6E01D928A95E9F780915106909152063A
:10416000A0915306B09154068093910690939206C5
:10417000A0939306B09394063092A3069092A4065F
:1041800030928D0666EA76E080E00E944B0A81114B
:1041900003C08AE00E9415061092050110920401E6
:1041A00084EB90E00E9407062198299A80916C0088
:1041B000826080936C0080916800826080936800C8
:1041C00010924106209A209A0E94DE041092420624
:1041D000209A0E94DE040E940007E4E1F6E084E2F7
:1041E000DF011D928A95E9F760E273E080E090E0DC
:1041F0000E9469031092100610920F061092130687
:104200000E949C061092790610927B0680916606A9
:1042100081FD3092880690917A06913029F484FFCE
:1042200003C086E080937A0680917A06863009F092
:1042300071C08BE493E00E94070685E293E00E9440
:1042400007068EEF92E00E9407060E94350C3CE0C4
:10425000232E9091E5018091E601891709F45BCF47
:10426000E92FF0E0EB59FE4F80819F5F903809F411
:1042700056C09093E5018F3F09F449CF8A3019F079
:104280008D3009F0D4C40E94350C109179061111BB
:104290003ECFE0910501EE2309F4BAC0F0E0E2540C
:1042A000F94F10828091BE06853411F40C94003CC5
:1042B0008091BE06843209F0ADC4398A8091BF0670
:1042C000833409F407C274F5833209F4AAC0843236
:1042D00009F497C081112EC08EED90E00E94070670
:1042E00097C0853070F443E250E061E070E083E411
:1042F00096E00E94F808892B21F080E00E94A40932
:10430000B5CE8AE00E94150681E00E94A4090E94B1
:104310005A06ACCE10927A060E94AF1D96CF10922C
:10432000E501A9CF883409F4F7C10CF04CC08734FB
:1043300009F402C1BE01635F7F4FCE0141960E9426
:104340009502892B09F460C4E98981E08E0F898B7D
:10435000F0E0E254F94F90819D3309F053C41123EA
:1043600009F4F0C2482F50E0282F30E0D901A254C0
:10437000B94F9C91241B350BF901E254F94F9083FE
:104380008F5F9C919111F0CF898B80917A06863056
:1043900009F44BC40E946412182F811142C46D8528
:1043A0007E858F8598890E9428300E94BF2CE3E388
:1043B0006E9FC001112442E350E06EEB76E09D5FFA
:1043C0000E943C0925C08E3409F485C2883509F065
:1043D000B1CF998A8091C006811114C480917A0668
:1043E0008630B1F48BE493E00E94070683E193E00A
:1043F0000E9407068EEF92E00E94070610927A064E
:1044000007C0998A8091C0068111FCC30E945A0698
:1044100088EB92E00E9407061092050110920401B9
:1044200018CF998A8091C0068111ECC300E0BE01CB
:104430006F5F7F4F802F0E944B0A811104C08AE07A
:104440000E941506E5CF8EE392E00E940706EFEF8B
:10445000E00F8AE392E0E73070F4F0E0EE5CFD4DAF
:104460000C94703039228A228D2290229322962237
:10447000992286E392E00E940706FE0131966F01C1
:10448000F12CD6016D917D918D919D916D012091C1
:10449000660620FF06C02BE832E441E25DE30E949D
:1044A000452F0E94FC04B2E08CE192E0FB1202C0B6
:1044B00088E192E00E940706F394E3E0FE12E1CF68
:1044C0000F5F083009F0B3CF82E192E00E94070647
:1044D00022EBE22E26E0F22ED7016D917D918D9197
:1044E0009D917D012091660620FF06C02BE832E4F5
:1044F00041E25DE30E94452F0E94FC0480E192E0CE
:10450000123011F48CE092E00E9407061F5F133016
:1045100019F77ECF82E392E0AECF8EE292E0ABCF8E
:104520008AE292E0A8CF86E292E0A5CF82E292E012
:10453000A2CF8EE192E09FCF998A8091C00681112F
:1045400061C380918A06823009F460C008F04EC0D1
:10455000882309F453C0813009F455C088E992E0FA
:104560000E9407066091A50670E06A5C7F4F072EE7
:10457000000C880B990B0E949E058091A206811168
:104580004EC08091A306813009F046C083E992E0D5
:104590000E94070680918C06882309F443C084E8B2
:1045A00092E00E94070680918D068823F1F18AE748
:1045B00092E00E94070680918B068823C9F180E76C
:1045C00092E00E94070680918E068130C9F198F131
:1045D0008230C9F180918F06882309F467C0813049
:1045E000A9F18F3FB9F587E592E032C0833089F0B9
:1045F000843009F0B3CF8BE992E002C08CEA92E0FC
:104600000E940706ABCF88EA92E0FACF84EA92E0F4
:10461000F7CF80EA92E0F4CF8EE892E0B9CF89E854
:1046200092E0B6CF8FE792E0BCCF85E792E0C1CFB2
:104630008BE692E0C6CF87E692E00E940706CACFDB
:1046400083E692E0FACF8FE592E0F7CF8BE592E038
:104650000E94070680919006882359F1813071F1FC
:1046600088E492E00E9407066091A10670E090E065
:1046700080E00E949E0585E492E00E9407068091FA
:104680008C068823F1F02BE832E441E25DE360918F
:1046900091067091920680919306909194060E94E3
:1046A000452F0E94FC0481E492E018CE83E592E05D
:1046B000CFCF8FE492E00E940706D2CF8BE492E046
:1046C000FACF609191067091920680919306909135
:1046D0009406E7CF998A8091C006811193C2809198
:1046E0007A06873069F40E94DA088BE493E00E942E
:1046F000070682E093E00E9407068EEF92E0EECD7F
:10470000811184C2B7E0B0937A068BE493E00E94F3
:1047100007068BE093E0EFCF8091660684FF78C2B6
:1047200080917A06882319F0863009F06FC2E5E09F
:10473000E0937A0680916B008D7F80936B000E94DE
:10474000B70400916C0610916D0620916E063091B1
:104750006F0640E061E084E00E94E01D00916C067D
:1047600010916D0620916E0630916F0640E061E079
:1047700083E00E94E01D80917006909171060E9476
:10478000B60882E0FF24FA94F80EFFEFFF1661F1FD
:10479000009168061091690620916A0630916B06B7
:1047A00041E060E087E00E94E01D809170069091FA
:1047B00071060E94B60880E021E0F212E3CF00917A
:1047C00068061091690620916A0630916B0640E0F8
:1047D00061E087E00E94E01D809170069091710673
:1047E0000E94B60881E0CECF0E94C0080E94350C1E
:1047F0008091790681110CCEACE7B6E0E22D1D92D6
:10480000EA95E9F70E949C0610927A068091670665
:1048100011E086FF1FEF01E087FF0FEF61E080FFEF
:104820006FEF40907206509073066090740670901F
:104830007506A0906C06B0906D06C0906E06D09084
:104840006F06062E000C770B880B990B0E94F02C3C
:10485000A30192010E94452F6A8B7B8B8C8B9D8BD1
:10486000602F000F770B880B990B0E94F02CA3018F
:1048700092010E94452F6E8B7F8B888F998F612FBD
:10488000110F770B880B990B0E94F02CA30192015A
:104890000E94452F812CEA88FB880C891D892E896E
:1048A0003F89488D598D0E94330E0E94D4040E9486
:1048B0001F0E0E949C068091660683FF05C08091B2
:1048C0006B00826080936B00809179068111A0CD8E
:1048D0000E94AF1D9DCD998A8091C00611E0811183
:1048E00029CDC12CD12C76018C2D0E947809811103
:1048F0000EC08AE00E941506CA94CD28CE28CF2883
:1049000009F486CDC12CD12C7601C394EDCF85EB73
:1049100092E00E940706C701B6010E949E0583EB44
:1049200092E00E9407060EEB16E0D8018D918D01F2
:10493000882319F00E94E004F8CF80EB92E00E94F7
:104940000706DACFBE016F5F7F4FCE0141960E940E
:104950009502892B09F458C1E989F0E0E254F94F36
:10496000808181114FC1C980DA80EB80FC806D8528
:104970007E858F8598890E94B82C2B01683171053E
:1049800008F039C1FB01E953FB4D0C947030DF2472
:10499000DF24DF24F7240B2514251D2526252F25AC
:1049A000462551255A2563256C257D258C259B257B
:1049B000AE25BD25C625CF25D825E325EC2520E04D
:1049C00030E0A901C701B6010E943C2C18160CF07A
:1049D00017C1F201EE0FFF1FEE0FFF1FED5BF94F46
:1049E000C082D182E282F3820E94970911CD20E039
:1049F00030E040E450E4C701B6010E943C2C19E0CD
:104A000087FDFAC0C701B6010E94B22F0E94BF2CD9
:104A100060935006E9CFC0925106D0925206E092C0
:104A20005306F0925406E0CFC0925506D092560637
:104A3000E0925706F0925806D7CFC701B6010E9400
:104A400028300E94BF2C60935906CECFC701B60113
:104A50000E94B22F0E94BF2C60937606C5CF20E043
:104A600030E040E752E4C701B6010E94452F20E044
:104A700030E040E752E40E94452F60935E06709359
:104A80005F068093600690936106AECFE894F7F8D6
:104A9000C0926206D0926306E0926406F0926506C8
:104AA000A3CFC0925A06D0925B06E0925C06F092C9
:104AB0005D069ACFC701B6010E94B22F0E94BF2C9B
:104AC0006093780691CFC701B6010E94B22F0E9471
:104AD000BF2C6093770688CF1091660620E030E007
:104AE000A901C701B6010E943C2C882321F0116066
:104AF0001093660679CF1E7FFBCF1091660620E0EB
:104B000030E0A901C701B6010E943C2C882311F0B6
:104B10001260EECF1D7FECCF1091660620E030E0F2
:104B2000A901C701B6010E943C2C882311F0146032
:104B3000DFCF1B7FDDCF1091660620E030E0A901BA
:104B4000C701B6010E943C2C882331F018601093F5
:104B500066060E94000748CF177FF9CF10916606BE
:104B600020E030E0A901C701B6010E943C2C882357
:104B700011F01061BDCF1F7EBBCFC701B6010E94EF
:104B800028300E94BF2C609367062ECFC092680623
:104B9000D0926906E0926A06F0926B0625CFC09229
:104BA0006C06D0926D06E0926E06F0926F061CCFF6
:104BB000C701B6010E94B22F0E94BF2C70937106EC
:104BC0006093700611CFC0927206D0927306E09285
:104BD0007406F092750608CF1091660620E030E06A
:104BE000A901C701B6010E943C2C882311F0106274
:104BF0007FCF1F7D7DCF16E0812F0E9415060CCC44
:104C000018E0FACF13E0F8CF11E0F6CF1BE0F4CFB5
:104C100017E0F2CF80917A06863039F00E94641254
:104C2000182F112309F4F4CBE7CF1CE0E5CF9091C6
:104C30000401992321F0893209F00BCBEFCB8132AB
:104C400008F407CB8F3209F404CB883219F4309280
:104C50000401FFCAE0910501E13308F0FACA21E03E
:104C60002E0FF0E0E254F94F9FE9980F20930501D1
:104C70009A3108F480528083ECCA1F920F920FB6CB
:104C80000F9211242F933F938F939F93AF93BF93D2
:104C900080913D0690913E06A0913F06B09140065E
:104CA00030913C0623E0230F2D3758F50196A11DC6
:104CB000B11D20933C0680933D0690933E06A09341
:104CC0003F06B09340068091380690913906A09136
:104CD0003A06B0913B060196A11DB11D809338069E
:104CE00090933906A0933A06B0933B06BF91AF91DB
:104CF0009F918F913F912F910F900FBE0F901F901A
:104D0000189526E8230F0296A11DB11DD2CF1F9240
:104D10000F920FB60F9211248F938091590680FD48
:104D2000289A80FF28981092B1008F910F900FBEA3
:104D30000F901F9018951F920F920FB60F9211248B
:104D40000F931F932F933F934F935F936F937F9393
:104D50008F939F93AF93BF93CF93DF93EF93FF9383
:104D6000809113068111A3C195B180911206817CB7
:104D70009E73892B85B985B18E7F90911206892B00
:104D800085B9809111068093B20082E08093B100D2
:104D900081E080931306789480910F06909110061D
:104DA000892B69F490910E0680910D06981394C199
:104DB0000E94C00880917B06846080937B06C0912E
:104DC0000F06D0911006209709F468C1288120931E
:104DD00012068091140690911506A0911606B091C6
:104DE000170649815A816B817C81840F951FA61F0C
:104DF000B71F8093140690931506A0931606B093E0
:104E00001706181619061A061B0614F5322F3160FC
:104E1000309312064091200650912106609122069F
:104E200070912306841B950BA60BB70B8093140679
:104E300090931506A0931606B09317068091660608
:104E4000807226FFD4C1882309F4D4C10E94530480
:104E50008091180690911906A0911A06B0911B0630
:104E60004D815E816F817885840F951FA61FB71FC6
:104E70008093180690931906A0931A06B0931B0608
:104E8000181619061A061B060CF07CC02091120693
:104E900021602093120640912006509121066091D6
:104EA000220670912306841B950BA60BB70B8093EB
:104EB000180690931906A0931A06B0931B0640910A
:104EC00080065091810660918206709183068091E0
:104ED00002019091030127FF93C1415051096109DB
:104EE0007109409380065093810660938206709307
:104EF00083060197181619060CF07FC190930301E1
:104F0000809302018091020190910301019711F4B5
:104F100088E088B98091020190910301029711F411
:104F20008CE088B98091020190910301039711F4FC
:104F300084E088B98091020190910301049711F4F3
:104F400086E088B98091020190910301059711F4E0
:104F500082E088B98091020190910301069711F4D3
:104F600083E088B98091020190910301079711F4C1
:104F700081E088B98091020190910301089711F4B2
:104F800089E088B9C0910F06D091100680911C0667
:104F900090911D06A0911E06B0911F0649855A8565
:104FA0006B857C85840F951FA61FB71F80931C06F9
:104FB00090931D06A0931E06B0931F06181619069F
:104FC0001A061B0664F52091120621602093120632
:104FD000409120065091210660912206709123068F
:104FE000841B950BA60BB70B80931C0690931D0694
:104FF000A0931E06B0931F068091840690918506AB
:10500000A0918606B09187060197A109B109809306
:10501000840690938506A0938606B09387068091B8
:10502000240690912506A0912606B09127060196A8
:10503000A11DB11D8093240690932506A0932606FA
:10504000B09327064D855E856F857889841795070F
:10505000A607B70708F0D4C120917A06243009F0DA
:10506000F2C00E94BD038823C9F080913006909160
:105070003106A0913206B09133060BA51CA52DA5D3
:105080003EA5081719072A073B0708F4CDC00E9460
:10509000C00880917B06846080937B068091120615
:1050A0009091590689278093120610921306FF915A
:1050B000EF91DF91CF91BF91AF919F918F917F91B0
:1050C0006F915F914F913F912F911F910F910F9091
:1050D0000FBE0F901F90189580910D06C82FD0E03D
:1050E0002BE3829FC001112489519E4F909310069B
:1050F00080930F0680917A06833009F52C9FF0018A
:105100002D9FF00D1124E951FE4F63A174A185A1DB
:1051100096A1609330067093310680933206909387
:1051200033060E94690380E091E7A2E0B0E080933B
:105130002C0690932D06A0932E06B0932F068BE39A
:105140008C9FF0018D9FF00D1124E951FE4F43A576
:1051500054A565A576A5DB01CA01B595A7959795D8
:105160008795840F951FA61FB71F809334069093D1
:105170003506A0933606B093370645855685678574
:105180007089DB01CA01B595A79597958795B0956C
:10519000A095909581959F4FAF4FBF4F8093140678
:1051A00090931506A0931606B093170680931806E1
:1051B00090931906A0931A06B0931B0680931C06C1
:1051C00090931D06A0931E06B0931F0640932006E1
:1051D00050932106609322067093230610922406B2
:1051E000109225061092260610922706E8CD8823F5
:1051F00009F42CCE0E94EF032BCE88E090E07ECE07
:105200004F5F5F4F6F4F7F4F4093800650938106F3
:1052100060938206709383060196893091050CF4A1
:105220006DCE81E090E06ACEBC01CD01601B710BB8
:10523000820B930B60933006709331068093320695
:10524000909333063FC04FA558A969A97AA984173E
:105250009507A607B707C8F50E94BD03882309F480
:105260001DCF8091300690913106A0913206B09109
:1052700033064BA55CA56DA57EA5840F951FA61FC3
:10528000B71F8093300690933106A0933206B093F7
:1052900033064FA958AD69AD7AAD84179507A607B7
:1052A000B70740F0409330065093310660933206C2
:1052B000709333066091300670913106809132060A
:1052C000909133060E946903E9CE4BA95CA96DA9B0
:1052D0007EA984179507A607B70708F47EC0841730
:1052E0009507A607B70779F540913006509131062A
:1052F00060913206709133068FA998ADA9ADBAAD11
:10530000481759076A077B0769F480E091E7A2E034
:10531000B0E080932C0690932D06A0932E06B093B8
:105320002F06BCCE40912C0650912D0660912E0682
:1053300070912F0680E092EEA4E0B0E0841B950B04
:10534000A60BB70BE6CF0E94BD03882309F4A6CEB7
:105350008091300690913106A0913206B0913306CB
:1053600040913406509135066091360670913706AB
:10537000481759076A077B0758F54BA55CA56DA52B
:105380007EA5841B950BA60BB70B809330069093DC
:105390003106A0933206B09333068FA198A5A9A534
:1053A000BAA5409130065091310660913206709155
:1053B0003306481759076A077B0708F07BCF8093AD
:1053C000300690933106A0933206B093330672CF25
:1053D000B695A79597958795D8CF6FA978AD89ADE4
:1053E0009AAD00913006109131062091320630912D
:1053F0003306061717072807390709F44FCE1ACFC7
:105400001092100610920F0690910E0680910D06D4
:10541000981709F443CE80910D068F5F823109F40D
:1054200080E080930D063ACE1F920F920FB60F9236
:1054300011242F933F934F935F936F937F938F9399
:105440009F93AF93BF93EF93FF938091C6008132F8
:1054500099F1A0F48831A1F1E091E60191E09E0F6D
:10546000903809F490E02091E5012917A1F0F0E0CF
:10547000EB59FE4F80839093E6010DC08F3331F0DE
:105480008E3751F780917B06826003C080917B0646
:10549000816080937B06FF91EF91BF91AF919F91C7
:1054A0008F917F916F915F914F913F912F910F90CD
:1054B0000FBE0F901F90189580917B068860E9CFF2
:1054C0000E94DA08E8CF1F920F920FB60F921124B4
:1054D0008F939F93EF93FF9380916401E82FF0E007
:1054E000EC5DFE4F90819093C6008F5F803409F48D
:1054F00080E08093640190912301981305C080910E
:10550000C1008F7D8093C100FF91EF919F918F919A
:105510000F900FBE0F901F9018951F920F920FB60D
:105520000F9211242F933F934F935F936F937F9329
:105530008F939F93AF93BF93EF93FF93199904C0F9
:10554000199913C00E94DA08FF91EF91BF91AF91B2
:105550009F918F917F916F915F914F913F912F918B
:105560000F900FBE0F901F901895199906C080914B
:105570007B06886080937B06E7CF1999E5CF809101
:105580007B068260F7CF1F920F920FB60F92112405
:105590002F933F934F935F936F937F938F939F933B
:1055A000AF93BF93EF93FF9380917A06863059F0C3
:1055B00080917B0685FD07C00E94DA0880917B06FA
:1055C000806480937B06FF91EF91BF91AF919F9193
:1055D0008F917F916F915F914F913F912F910F909C
:1055E0000FBE0F901F901895789484B5826084BD8B
:1055F00084B5816084BD85B5826085BD85B58160D7
:1056000085BDEEE6F0E0808181608083E1E8F0E036
:105610001082808182608083808181608083E0E865
:10562000F0E0808181608083E1EBF0E08081846044
:105630008083E0EBF0E0808181608083EAE7F0E046
:1056400080818460808380818260808380818160AA
:1056500080838081806880831092C1000E94FF1F38
:10566000F999FECF92BD81BDF89A992780B508952A
:10567000262FF999FECF1FBA92BD81BD20BD0FB66E
:10568000F894FA9AF99A0FBE019608955058BB27DC
:10569000AA270E945E2B0C94F82D0E94BF2D38F093
:1056A0000E94C62D20F039F49F3F19F426F40C9483
:1056B000952D0EF4E095E7FB0C94662DE92F0E94E2
:1056C0001D2E58F3BA17620773078407950720F059
:1056D00079F4A6F50C94572E0EF4E0950B2EBA2F04
:1056E000A02D0B01B90190010C01CA01A0011124E8
:1056F000FF27591B99F0593F50F4503E68F11A1694
:10570000F040A22F232F342F4427585FF3CF469524
:1057100037952795A795F0405395C9F77EF41F1646
:10572000BA0B620B730B840BBAF09150A1F0FF0F10
:10573000BB1F661F771F881FC2F70EC0BA0F621FFC
:10574000731F841F48F4879577956795B795F795EC
:105750009E3F08F0B0CF9395880F08F09927EE0F81
:105760009795879508950E94BF2D60F080E891E09D
:1057700009F49EEF0E94C62D28F040E851E071F434
:105780005EEF0CC00C94952D0C94572EE92FE07809
:105790000E941D2E40F3092E052AB1F32617370764
:1057A0004807590738F00E2E07F8E02569F0E02584
:1057B000E0640AC0EF6307F8009407FADB01B9015F
:1057C0009D01DC01CA01AD01EF930E945D2C0E9496
:1057D000F82D0E94F62B5F91552339F02BED3FE019
:1057E00049E450FD49EC0C94472B0895DF93DD27E5
:1057F000B92FBF7740E85FE31616170648075B0727
:1058000018F4D92F0E94D02E9F938F937F936F937C
:105810000E942430E8E6F0E00E94982D0E94F82DC6
:105820002F913F914F915F910E94582FDD2351F0AE
:105830009058A2EA2AED3FE049EC5FE3D0785D277B
:105840000E945E2BDF910C94F82D0E943F2E90F069
:105850009F3748F4911116F40C94582E60E070E0D4
:1058600080E89FE3089526F01B16611D711D811DC0
:105870000C946C2D0C94872D0E94422D08F481E02D
:1058800008950E94CF2DE3950C94092E0E945A2C66
:105890000C94F82D0E94C62D58F00E94BF2D40F0A8
:1058A00029F45F3F29F00C94662D51110C94582E69
:1058B0000C94952D0E941D2E68F39923B1F3552366
:1058C00091F3951B550BBB27AA2762177307840713
:1058D00038F09F5F5F4F220F331F441FAA1FA9F3A9
:1058E00035D00E2E3AF0E0E832D091505040E69597
:1058F000001CCAF72BD0FE2F29D0660F771F881FF8
:10590000BB1F261737074807AB07B0E809F0BB0BEA
:10591000802DBF01FF2793585F4F3AF09E3F5105FE
:1059200078F00C94662D0C94582E5F3FE4F3983E6B
:10593000D4F3869577956795B795F7959F5FC9F7E7
:10594000880F911D9695879597F90895E1E0660F68
:10595000771F881FBB1F621773078407BA0720F0E1
:10596000621B730B840BBA0BEE1F88F7E09508954A
:105970000E94BF2C6894B1110C94582E08950E9477
:10598000252E88F09F5798F0B92F9927B751B0F07E
:10599000E1F0660F771F881F991F1AF0BA95C9F7B3
:1059A00014C0B13091F00E94572EB1E008950C94CC
:1059B000572E672F782F8827B85F39F0B93FCCF37F
:1059C000869577956795B395D9F73EF49095809530
:1059D000709561957F4F8F4F9F4F0895E89409C050
:1059E00097FB3EF490958095709561957F4F8F4F12
:1059F0009F4F9923A9F0F92F96E9BB279395F69528
:105A0000879577956795B795F111F8CFFAF4BB0FA5
:105A100011F460FF1BC06F5F7F4F8F4F9F4F16C009
:105A2000882311F096E911C0772321F09EE8872F93
:105A3000762F05C0662371F096E8862F70E060E04F
:105A40002AF09A95660F771F881FDAF7880F9695C8
:105A5000879597F908950E943F2E90F09F3748F45C
:105A6000911116F00C94582E60E070E080E89FEBE6
:105A7000089526F41B16611D711D811D0C946C2D5B
:105A80000C94872D990F0008550FAA0BE0E8FEEF44
:105A900016161706E807F907C0F012161306E407F2
:105AA000F50798F0621B730B840B950B39F40A26EB
:105AB00061F0232B242B252B21F408950A2609F4C9
:105AC000A140A6958FEF811D811D089597F99F67CD
:105AD00080E870E060E00895882371F4772321F076
